:1002F80000000000000000000000000000000000F6
:1003080000000000000000000000000000000000E5
:0A013400D2B0D2B112037C120240D7
:10013E0078087C007D007BFF7A0279F87E007F20B4
:10014E001200D3D2B0D2B130B00320B1397F0A122F
:10015E00035320B0147508551202067B007A0079FD
:10016E00081202A67FC812035320B1147508AA12F2
:10017E0002067B007A0079081202A67FC81203538A
:10018E00E4F5081202407B007A0079081202D0EFE3
:10019E00709EE5082456600F24557019C2967F6430
:1001AE00120353D2968009C2B57F64120353D2B59F
:0801BE007F64120353E4F5080D
:0301C60002013EF5
:050385000A01070E0152
:10031800E4FEEF30E704D2938002C293EF25E0FFBA
:0E032800D292A290E4334207C2920EBE08E4C5
:0103360022A4
:09037C00C292D295C294D29122E2
:0B0337007F07120363AB07AD037F27B5
:10034200C295120318AC07AF05120318D295AF0479
:010352002288
:0B01C9007BFF7A037985752C057F2AE7
:0601D4008B298A2A892B09
:1001DA00C295120318AD07E4FCECC3952C5018AB7A
:1001EA0029052BE52BAA2A7002052A14F91200F90F
:0B01FA00FF1203180C80E2D295AF0545
:0102050022D6
:0C036300C295120318E4FF120318D29593
:01036F00226B
:060275008B2C8A2D892E5E
:10027B00C295120318AD07E4FCECC3952F5017E49D
:10028B00FF120318AB2CAA2DA92E8C82758300EFBD
:0A029B001201120C80E3D295AF05AA
:0102A5002236
:10024000C2941201C97D017F211203427F22120351
:10025000427D287F251203427D207F311203427D9B
:100260000F7F261203427F201203427DFF7F271259
:050270000342D29422BC
:10020600C2947BFF7A037985752C057F301201D461
:100216001201C97D017F211203427F221203427D12
:100226000A7F241203427D287F251203427D0F7F19
:0A023600261203421D7F200203423E
:0602D0008B288A29892A0F
:1002D600120337EB30E618AB28AA29A92A752F2076
:1002E6007F611202757DFF7FE21203427F00227F4B
:0102F6000106
:0102F70022E4
:1002A600C294752C207FA01201D4D2942091FD1205
:1002B6000337EB30E40A7DFF7FE11203427F102211
:0902C600EB30E5037F20227FFFED
:0102CF00220C
:0F0353007DA57C06ED1D70011C144C70F7DFF1C9
:010362002278
:0300000002037088
:0C037000787FE4F6D8FD75812F0201347F
:10000300E709F608DFFA8046E709F208DFFA803EDF
:1000130088828C83E709F0A3DFFA8032E309F608CC
:10002300DFFA8078E309F208DFFA807088828C8334
:10003300E309F0A3DFFA806489828A83E0A3F608E8
:10004300DFFA805889828A83E0A3F208DFFA804CC2
:1000530080D280FA80C680D4806980F28033801099
:1000630080A680EA809A80A880DA80E280CA803302
:1000730089828A83ECFAE493A3C8C582C8CCC5837A
:10008300CCF0A3C8C582C8CCC583CCDFE9DEE7804A
:100093000D89828A83E493A3F608DFF9ECFAA9F0C9
:1000A300EDFB2289828A83ECFAE0A3C8C582C8CC1F
:1000B300C583CCF0A3C8C582C8CCC583CCDFEADE38
:1000C300E880DB89828A83E493A3F208DFF980CC9A
:1000D30088F0EF60010E4E60C388F0ED2402B40493
:1000E3000050B9F582EB2402B4040050AF2323453A
:0600F3008223900053730C
:1000F900BB010689828A83E0225002E722BBFE0205
:09010900E32289828A83E4932237
:10011200F8BB010DE58229F582E5833AF583E8F023
:10012200225006E92582C8F622BBFE05E92582C8CF
:02013200F222B7
:00000001FF
